:040000000C94D1008B
:100004000C9400000C9400000C9400000C9400006C
:100014000C9400000C9400000C9400000C9400005C
:100024000C9400000C9400000C9400000C9400004C
:100034000C9400000C9400000C9400000C9400003C
:100044000C9400000C9400000C9400000C9400002C
:100054001027E80364000A000100001000011000EA
:1000640001000000200030000000000000002E000D
:100074002C003F0021003100610062006300320067
:10008400000064006500660033000000670068003B
:100094006900340000006A006B006C003500000049
:1000A4006D006E006F003600000070007100720079
:1000B4007300370074007500760038000000770084
:1000C400780079007A003900202020536176696E27
:1000D400672E2E2E2E202020002533640020202081
:1000E4004C6F6164696E672E2E2E202020002573CC
:1000F4000025313673002020456E74657220206E11
:10010400616D653A20200020456E74657220206E72
:10011400756D6265723A200043686F6F7365207471
:100124006F2064656C657465004E616D652C506864
:100134006F6E650A0025732C2573002020205068FB
:100144006F6E6520426F6F6B2020200053686168DA
:100154006964692020416469626E69610052657056
:100164006F727400556E6B6E6F776E20436F6D6D9A
:10017400616E64210A0080C002000400660063000E
:1001840089026800110060023F01110071025001F0
:10019400070082026101020075067A010000F894EA
:1001A400EE27ECBBF1E0F5BFE5BF8DE0A2E0BB2795
:1001B400ED938A95E9F780E098E0A0E6ED93019746
:1001C400E9F7ECE7F1E085919591009761F0A5914D
:1001D400B59105901590BF01F00105900D9201971E
:1001E400E1F7FB01F0CFEFE5EDBFE8E0EEBFC0E6DD
:1001F400D2E00C946D04EFEFE8BBC4980E940C09A4
:10020400B09902C0E4E40895B19902C0E3E208950C
:10021400B29902C0E0E30895B39902C0EAE20895F6
:10022400C49AC5980E940C09B09902C0E3E40895E9
:10023400B19902C0E9E30895B29902C0E8E30895D0
:10024400B39902C0E7E30895C59AC6980E940C09C1
:10025400B09902C0E2E40895B19902C0E6E30895BA
:10026400B29902C0E5E30895B39902C0E4E30895A6
:10027400C69AC7980E940C09B09902C0E1E4089597
:10028400B19902C0E3E30895B29902C0E2E308958C
:10029400B39902C0E1E30895C79AE0E00895BA93E0
:1002A400AA9322970E94FC0A20E030E040E050E04C
:1002B400A2DFEF83AF81A43421F4002404160506E1
:1002C4000CF001C081C0AF81A43421F400240416D1
:1002D400050609F003C0E0E0F0E078C0AF81AA327F
:1002E40021F40024041605060CF00EC00E94100927
:1002F400A0E20E941409AE0FBF1FE0E2EC9341504C
:10030400504079DFE030E9F7AF81A03330F0AA3311
:1003140020F44031E0E05E070CF04CC020E030E017
:100324000E9410090E941A09AC910E941409EA0F54
:10033400FB1FFF93EF930E941A09EC91AF91BF91B9
:10034400EC9359DFE030E9F700E010E00E31E0E033
:100354001E0774F550DFEE83E03039F1EF81AE8192
:10036400EA1731F5EA1739F42F5F3F4F00E010E048
:1003740042DFE030E9F70E941A090E94CE0A309762
:1003840019F42F5F3F4FF7CF0E9410090E941A09FA
:10039400AC910E941409EA0FFB1FFF93EF930E9494
:1003A4001A09EC91AF91BF91EC930F5F1F4FCECF21
:1003B4004F5F5F4F0E941009AFE50E941409AE0F12
:1003C400BF1FE0E0EC9374CFE1E0F0E00E94030B88
:1003D4002A960895BA93AA930E94FE0A00E010E0B8
:1003E4000ADF3E2F343421F40024001601060CF0F9
:1003F40005C0E1E0F0E00E94050B1AC2343421F498
:1004040000240016010609F005C0E0E0F0E00E94B7
:10041400050B0EC23A3221F40024001601060CF03A
:100424000EC00E942F09A0E20E943309AE0FBF1F25
:10043400E0E2EC9301501040DEDEE030E9F73033C7
:1004440030F03A3320F40B30E0E01E070CF00DC01E
:100454000E942F09A32F0E943309EA0FFB1F308348
:100464000F5F1F4FC8DEE030E9F70E942F09AFE5A8
:100474000E943309AE0FBF1FE0E0EC93B1CF0E949E
:100484003909ECECF0E00E9440090032E0E01E077C
:10049400ACF420E030E02B31E0E03E0764F40E944D
:1004A4005A09BF010E948D09E081DB010E94E70A1D
:1004B4002F5F3F4FF0CF0F5F1F4FE7CF0E94970989
:1004C40047C00E943909E1EEF0E00E944009003281
:1004D400E0E01E07CCF520E030E02B31E0E03E0701
:1004E40014F50E945A09DF010E94DB0AE03011F082
:1004F400EF3F29F40E948D09A0E0A08311C00E945F
:100504008D090F01F801EE0FFF1F0E94790AE050D8
:10051400F040E20FF31FDF010E94DB0AD001EC93ED
:100524002F5F3F4FDACFABE1A09FF001A19FF00D09
:10053400E351FD4FE081E03021F40E940E05F80103
:1005440007C00F5F1F4FC3CF0E949709E0E2F0E09E
:100554000E94050B24960895BA93AA936D970E945E
:10056400FE0AE1E0F0E04E165F060CF4A0C0A9A17B
:10057400BAA1A415B50524F0F2013197E9A3FAA3B1
:10058400E0E0E8A3EF870E940E0535DE1E2F103051
:10059400E1F3143419F4E9A1FAA18BC0113421F464
:1005A4002ADEE030E9F783C01A3229F4A9A1BAA1FE
:1005B4000E94F80A0CF006C0E9A1FAA13197E9A358
:1005C400FAA329C0133239F4F2013197A9A1BAA1CF
:1005D400AE17BF070CF006C0E9A1FAA13196E9A352
:1005E400FAA319C01A3221F4A9A1BAA1109709F0EB
:1005F40005C0F2013197E9A3FAA30DC0133239F40F
:10060400F2013197A9A1BAA1EA17FB0709F003C0C7
:10061400E0E0E9A3EAA320E030E02B30E0E03E078D
:1006240074F4F901DE0114960E949D09E20FF31F90
:10063400E081A72FB82FEC932F5F3F4FEECF20E040
:1006440030E02031E0E03E078CF4F901DE01509601
:100654000E949D09DF01F9013B96AE0FBF1FEC918B
:10066400A72FB82FEC932F5F3F4FEBCF0E94A90920
:10067400E2EFF0E00E94B0090E94B9090E94C009AB
:100684000E94C709E5EFF0E0FA93EA93FE01389679
:100694000E94CC090E94B909A1E00E940105ADE4C1
:1006A400B6E00E943105A7DDE030E9F76ECFEFEF49
:1006B400FFEF0E94050BA39608956D971A930A9372
:1006C400EFE1F0E0E415F5050CF44FC00E94A90930
:1006D400EAEFF0E00E94D109DE011E96E0DD3097DA
:1006E40009F443C088DDE030E9F70E94A909EBE092
:1006F400F1E00E94D109DE0112966CDE3097A9F177
:100704007ADDE030E9F788D100E010E00B30E0E07A
:100714001E077CF40E94DA09E00FF11F0F01DE01CD
:100724001296A00FB11FEC91D001EC930F5F1F4FF5
:10073400EDCF00E010E00031E0E01E0794F40E94E9
:10074400DA09DF01F8013B96EA0FFB1F0F01DE0116
:100754001E96A00FB11FEC91D001EC930F5F1F4FB9
:10076400EACFF20131962F018ADE198108816F9652
:1007740008950E94FC0AE1E0F0E04E165F060CF4D6
:1007840055C00E94C709ECE1F1E00E94D109A0E044
:10079400B0E0E2DEAF0155230AF448C000E010E007
:1007A4000B31E0E01E0754F4ABE1A49FF001A59FD8
:1007B400F00D0E94E2090F5F1F4FF2CF8A01F20190
:1007C40031970E171F07E4F420E030E02B31E0E00E
:1007D4003E079CF40E948D09BF01F8013196ABE1FC
:1007E400B0E00E94870AE351FD4FE20FF31FE0815E
:1007F400DB01EC932F5F3F4FE9CF0F5F1F4FDFCF3C
:1008040000E010E00B31E0E01E075CF4F2013197E8
:10081400ABE1B0E00E94870A0E94E2090F5F1F4F1C
:10082400F1CFFAD0F20131972F0129DE0E94030B98
:10083400269608956D970E94FE0AEDE2F1E00E946B
:10084400E90920E030E0241535050CF040C000E053
:1008540010E00B30E0E01E076CF4F801DE011496A2
:100864000E94F009E00FF11FE081DB01EC930F5FC0
:100874001F4FEFCF00E010E00031E0E01E0784F4EA
:10088400F801DE0150960E94F009DF01F8013B9661
:10089400AE0FBF1FEC91DB01EC930F5F1F4FECCF4A
:1008A400E0E0EF870E94C709E9E3F1E00E94B009A4
:1008B400FE013C960E94CC0988E00E94FA062C9620
:1008C400ADE4B6E00E9476052F5F3F4FBCCF0E9497
:1008D400050BA1960895E0E0EABBEBBBE0EFE7BBB4
:1008E400E0E0E8BBEFEFE4BBE0E0E5BBE2E0E1BB66
:1008F400E0E0E2BBE3BFE2BFECBFEFBDEEBDEDBDA8
:10090400ECBDE7BDE6BDEBBDEABDE9BDE8BDE2BDBA
:10091400E5BDE4BDE3BDE9BFE5BFE4BFEBB9E8E194
:10092400EAB9E6E8E0BDE0E0E0BDE3E3E9B9E0E828
:10093400E8B9E0E0E0BFE6B9EDB9E6BFA0E19BD0DD
:10094400C0DD2F01E0E0EA93A0E059D0A0E6B2E0D8
:1009540086D0E0E0EA93A1E052D0A1E7B2E07FD0F4
:100964004ADC1E2F113411F4A8DE09C0123421F41C
:10097400A0E0B0E0F1DD03C0133409F4FADE5F9BBC
:100984001AC0E2EFF0E0FA93EA93EDE4F6E00E9495
:10099400CC0984E00E949F0826960E94C709A2E819
:1009A400B2E00E94BC08E03011F444DF04C0E8E681
:1009B400F1E00E94E909C6CFFFCFAA93E5B3EF7037
:1009C400AE2FE881E07FEA2BE5BB8DE08A95F1F755
:1009D400AA9A8DE08A95F1F7AA988DE08A95F1F7A5
:1009E4000C947405AA93A881E8DFE881E295E88372
:1009F400A881E3DF85E88A95F1F70C947405AA933E
:100A0400E881F0E0EB58F94FE081A981AE0FEADF0D
:100A14007980688022960895A2E00E94FB09ACE0E8
:100A2400E1DFA1E00E94FB09E0E06E2E7E2E089536
:100A3400AA93A881AA3011F0791450F0E0E0EA9367
:100A44006394A62DDCDFA881AA3011F40C947405FC
:100A54007394A89AA881C6DFA8980C947405BA93D5
:100A6400AA931A930E94010A19F0A12FE1DFFACF89
:100A740018810C948B05AA93E4B3E06FE4BBA29AAB
:100A8400A09AA19AAA98A898A9989880E881E05871
:100A9400E0937706E881E054E0937806A4E1B0E0BF
:100AA4000E94670A0E94090A0E94090A0E94090A10
:100AB400A0E283DF88EC90E00197F1F7A8E292DFEF
:100AC400A4E090DFA5E88EDFA6E08CDFA5DF0C9420
:100AD40074055F9BFECFECB10895AA935D9BFECF96
:100AE400E881ECB921960895BA93AA931A930E94C7
:100AF400010A19F0A12FF1DFFACFAAE0EEDF188185
:100B040008C0BA93AA93AA81E8DFA881B9810E9498
:100B1400110A23960895BA93AA931A930A93AA8161
:100B2400BB8112960E94CE0A309729F1AA81BB811B
:100B340014960E94CE0A8F01309761F00230E0E0F3
:100B44001E0780F0F80131978F01AA81BB811496AA
:100B5400ED93FC93AA81BB8112960E94110A3197EE
:100B6400AC81A083AA81BB810E94CE0AFF2312F02C
:100B74000E94110A06C0AA81BB81EFEFFFEFED933B
:100B8400FC931981088195C1BA93AA9326970E9470
:100B9400FC0A10E0AC85BD85E0E0F0E0ED93FC9349
:100BA400EA89FB893196EA8BFB8B3197E4912E2FEE
:100BB400E03009F415C1E12FE03039F4253211F4A5
:100BC40011E002C00E94170A0AC1E130A9F42532DB
:100BD40019F40E94170A02C112E040E000E02D322D
:100BE40011F401E0FCC02B3211F44BE2F8C02032C6
:100BF40011F440E2F4C002C0E23039F450E013E0F2
:100C0400203311F40068EBC003C0E33009F0E7C0FF
:100C1400203310F02A3308F007C0AAE05A9F502D61
:100C2400E22FE0535E0FDBC0E22FE33649F40E946B
:100C34001E0AE889F989A481AA930E94240ACEC0D5
:100C4400E33741F40E941E0A0E942A0A0E94D00837
:100C54001E2F0AC0E03761F40E941E0A0E942A0A6D
:100C64000E94DC081E2F086002600F7730E034C059
:100C7400E43611F0E93611F4046002C0E53731F4CA
:100C8400E4E5F0E0EE83FF8315E00CC0E83511F4F1
:100C9400086003C0E83709F0A1C0EEE5F0E0EE8398
:100CA400FF8314E002FF14C00E941E0A0E94340A4B
:100CB400AB85AA233AF4EA85FB850E94750AEA8784
:100CC400FB874DE2403011F01F5F01C00B7F04C071
:100CD4000E941E0A0E94340A00FD11C0151778F400
:100CE40007FF08C002FF04C00B7F242F115001C06E
:100CF40020E301C020E20E94170A5150EFCF312FA8
:100D040001FF17C03030A1F003FF06C0EE81FF8160
:100D14002591EE83FF8305C0AE81BF812D91AE8303
:100D2400BF830E94170A503009F051503150EACF66
:100D34004BC020E3EE81FF810E94D20AE887F98745
:100D4400EE81FF813296EE83FF83E885F985AA85DB
:100D5400BB85AE17BF0750F02F5FA885B985EA851C
:100D6400FB85EA1BFB0BEA87FB87EFCF2A3328F0CE
:100D740003FF02C0295F01C0295D04FD1AC02133AD
:100D840020F4A885B985119709F409C0531710F008
:100D940000FF01C013C020E207FF0BC020E3006185
:100DA40002FF07C00B7F4A930E94240A503009F0C7
:100DB40051500E94170A503009F051503150A88503
:100DC400B985129708F0B5CF00FF08C0503031F054
:100DD4005150E0E2EA930E94240AF8CF10E0E0CEFA
:100DE400AC85BD850E94CE0A0E94030B64960895CB
:100DF400FF92F82E26970E94FE0A0E943C0A309722
:100E040019F4EFEFFFEF1DC0DE0116960E94710A80
:100E14008D010E943C0AEE83FF83E0E0E887E987C6
:100E2400DE011A960E94430AEDE8F5E0FA93EA938C
:100E3400DE011A96A9DE9F01AE81BF81E0E0EC934A
:100E4400F9010E94050B2A96FF900895FF92F82E4F
:100E540026971A930A93DE0114960E94710A8D0153
:100E6400E0E0EC83ED83EE83EF83DE0118960E94CD
:100E7400430AE3E8F5E0FA93EA93DE01189684DE88
:100E8400198108812896FF900895BA93AA931A931A
:100E9400A981BA81E0E0EC93AB81BC81EC911E2F77
:100EA400E03019F0E0E0EC9302C013DE1E2FE12FD6
:100EB400188125960895FF92BA93AA9324970E94C5
:100EC400FC0AE0E0F0E0E887F9874E2FE889F98929
:100ED4003196E88BF98B3197E4913E2FE03009F499
:100EE40025C10E944C0AC1F0EDB7FEB7FA93EA930C
:100EF4004F930E94510A4F913E2FE03019F00E9407
:100F04004C0A09F407C00E94570A1CF4EFEFFFEFE4
:100F14000FC1EACF432F09C1353209F0EEC050E0CA
:100F2400E889F9893591E88BF98B303310F03A333D
:100F340008F007C0AAE05A9F502DE32FE0535E0F3C
:100F4400EFCF303009F4F2C0EDB7FEB7FA93EA936D
:100F54004F930E94510A4F912E2FAE2F0E94F208F8
:100F6400E03039F00E94570A1CF4EFEFFFEFE0C0C5
:100F7400EBCF203009F4D1C0422F503009F45FEF99
:100F8400E32FE33699F40E945C0AEDB7FEB7FA93B7
:100F9400EA934F930E94510A4F91D801EC930E9417
:100FA400570A1CF4EFEFFFEFC3C0A1C0E33741F5CC
:100FB4000E945C0AE52F5150E030F1F0EDB7FEB726
:100FC400FA93EA934F930E94510A4F913E2FE030D7
:100FD40019F00E944C0A39F00E94570A1CF4EFEFF2
:100FE400FFEFA6C009C01F930F930F5F1F4FE32F9E
:100FF400AF91BF91EC93DECFD801E0E0EC9377C0E2
:101004006894F1F8E894F2F8E32FE43611F0E93645
:1010140019F4E894F1F802C0E53711F42AE008C0A5
:10102400E83711F420E104C0E53209F466C07EC05B
:10103400E0E0EE83EF836894F0F8E52F5150E03060
:1010440009F446C0EDB7FEB7FA93EA934F930E94B2
:10105400510A4F913E2FE13238F40E94570A1CF492
:10106400EFEFFFEF65C017C0F1FC08C06894F1F81A
:101074003D3211F4F2F8E1CF3B32F9F2203131F490
:10108400A32F0E94FD08E03031F009C0A32F0E9475
:10109400E908E03021F4F0FC49C0432F19C031368F
:1010A40010F0375505C0313410F0375301C03053B8
:1010B400E22FAE81BF81F0E00E94870ADF01E32FB7
:1010C400F0E0EA0FFB1FEE83FF83E894F0F8B5CF5E
:1010D4000E945C0AF2FE06C0EE81FF810E94750A3E
:1010E400EE83FF83EE81FF81D801ED93FC93E885C5
:1010F400F9853196E887F98718C0EDB7FEB7FA93FA
:10110400EA934F930E94510A4F91E31771F00E94A2
:10111400570A1CF4EFEFFFEF0BC0E885F985309711
:1011240019F4EFEFFFEF04C001C0D0CEE885F985D4
:101134000E94030B6296FF900895FF92F82E239766
:101144001A930A93DE0111960E94710A8D01E0E060
:10115400EB83EC83DE0115960E94430AE7E4F7E093
:10116400FA93EA93DE011896A6DE19810881259682
:10117400FF900895BA93AA93E991F991A991B9912D
:101184006D917191671721F46623D1F7EE270895C5
:10119400671BE1F3E1E008F4E2500895BA93AA93DF
:1011A400A991B991EE27FF276D91662311F031962D
:1011B400FBCF0895BA93AA93AA27BB27E991F99183
:1011C4000590002011F01196FBCFFD010895AA931C
:1011D400E1E0F991F03310F0FA3308F0EE270895C6
:1011E400AA93E1E0F991F03229F0F93010F0FE30E1
:1011F40008F0EE270895AA93E1E0F991F05340F046
:10120400FA3038F0FF75F750FA3010F0F03108F08A
:10121400EE270895AAE0B0E00C94670A4A93A1E08F
:101224000C9401050E941A05FA01A885B985089550
:10123400EF81F0E0F097AAE0B0E00E94870AE75758
:10124400FD4FBF01D901E5E0F0E00E94B20ADB01E5
:10125400EE0FFF1FAE0FBF1F08950A93A1E00C9479
:1012640001050E941A05F801AC81BD8108950E9410
:10127400FE0AEDE4F6E0FA93EA930895FA93EA930A
:1012840080E00E94FA062496E0E0EA93A0E00E943F
:101294000105ADE4B6E00E943105E9E0EA93A1E07E
:1012A4000E940105A5E20E941A0500E010E00895DD
:1012B400EDE4F6E0FA93EA93EDEDF0E0FA93EA93C5
:1012C400F801EE0FFF1F0E94790AE20FF31FAAE054
:1012D400B0E00E94950ADF01E5E6F0E00E94AD0A65
:1012E4000E94820A0E94D60A84E00E94FA06289686
:1012F400E6E0EA93A1E00E940105ADE4B6E00E94B5
:101304003105F801EE0FFF1F0E94790AE050F0400A
:10131400E20FF31F0895ABE1A09FF001A19FF00D30
:10132400E351FD4FE20FF31F0895A8EEB3E00E94CE
:10133400670A0C940E05EA0FFB1F7E2F8F2FA9A1BD
:10134400BAA1EBE10E948F0AE351FD4F08950E9478
:101354000E05EDE4F6E0FA93EA930895FA93EA931E
:10136400FE017496662777270E94D60A089584E0C2
:101374000E94FA062896E0E0EA930895A0E00E940D
:101384000105ADE4B6E00C943105EDE4F6E0FA9322
:10139400EA930895662777270E94D60A0895FA9358
:1013A400EA9380E00E94FA062496E0E0EA93E6CF0E
:1013B400F201ABE1B0E00E94870AE351FD4F0895CA
:1013C400E351FD4FE00FF11FA0E0A0830895FA93CD
:1013D400EA9380E00E94280722960895EA0FFB1FF3
:1013E400BF01ABE1A29FF001A39FF00DE351FD4FBC
:1013F40008950E94F404A3E0B0E00C94670AA98164
:10140400BA81ED91A983BA831E2FE0300895A0E339
:101414000E94DF0488EC90E00197F1F70895ED91C4
:10142400FD913196FE93EE9308952A93AD85BE8582
:10143400EF85F88909950895E889F9893497E88B47
:10144400F98B0895AD85BE85EF85F88909950895D2
:10145400A889B98914960E94CE0AEE83FF83AE81CF
:10146400BF810895A889B98914960E94CE0AEA8793
:10147400FB870895DE011C960E94710A0E94CE0A21
:1014840008950E94710A0E94CE0AFA93EA931A936D
:101494000A930895A32F0E94F208E0300895AC85C2
:1014A400BD85EE85FF8509950895AA85BB85AC9118
:1014B400A0300895EE85FF853497EE87FF87AE85CB
:1014C400BF8514960D911C910895109639F080ED06
:1014D40097E00197F1F7A8951197C9F708950024AB
:1014E400AF0DB01D0895F195E195F0400895EE0F0C
:1014F400FF1FEE0FFF1FEE0FFF1FEE0FFF1F0895DC
:101504006F2F660F660B762F0895FA9FF02DEB9FD1
:10151400F00DEA9FE02DF10D08956E2F6A9FF00102
:101524006B9FF00D08952AD0F0DF0EF4DCDF0895F0
:101534000024112490E1AA0FBB1F001C111C0E1AD9
:101544001F0A18F40E0E1F1E01C0A1609A9599F788
:10155400FD01D001089512D0EBDF0EF4C4DF08952D
:10156400E894B7FF04C0A095B09511966894F7FD70
:10157400BADFDEDFFD010EF4B6DF0895E894F7FF6D
:1015840002C0B1DF6894B7FF06C0A095B09511966C
:1015940000F8039400FA0895ED91FC9111970895D1
:1015A4000590F491E02D08957A936A93FA93EA935F
:1015B4000895E199FECFFF93FFB7F894AEBBBFBB8C
:1015C400E09AEDB3FFBFFF910895E19B02C0A89597
:1015D400FCCF9FB7F894AEBBBFBBE09A8DB3E817BE
:1015E40019F0EDBBE29AE19A9FBF089500240A1610
:1015F4000B0608955A934A933A932A931A930A939B
:1016040008955D814C813B812A8119810881089567
:00000001FF
